S01500005175697A286B69746368656E292E737265632F
S113000045C0000060C000005EC000005CC000008D
S11300105AC000008BC00000AAC00000CFC000007E
S113002052C0000050C000004EC000004CC0000090
S11300304AC0000048C0000046C0000044C00000A0
S1130040CBC0000040C000003EC000003CC0000027
S11300503AC0000038C0000036C0000034C00000C0
S113006032C0000030C000002EC000002CC00000D0
S11300702AC0000028C0000026C0000024C00000E0
S113008022C0000020C000001EC0000011241FBEBA
S1130090CFEFD0E1DEBFCDBF11E0A0E0B1E0E2EEF2
S11300A0F3E000E00BBF02C007900D92A631B10748
S11300B0D9F721E0A6E1B1E001C01D92A532B20753
S11300C0E1F702D08CC19CCF65E370E082E390E05D
S11300D0CAD08FEF81BB8FE084BB8FE882B987B72A
S11300E0816087BF84E083BF8FB780688FBF7894B7
S11300F080911A0190911B01A0911C01B0911D01E6
S11301000097A140B10540F010921A0110921B0112
S113011010921C0110921D0160911A0170911B0133
S113012080911C0190911D01EAD0E2CF1F920F92A1
S11301300FB60F9211248F939F9380911E0190917B
S11301401F01019690931F0180931E0180911E014F
S113015090911F01039724F010921F0110921E0129
S11301609F918F910F900FBE0F901F9018951F9223
S11301700F920FB60F9211248F939F9380911E01BB
S113018090911F01892B39F481E090E090931F0135
S113019080931E010CC080911E0190911F01019754
S11301A031F482E090E090931F0180931E019F91AF
S11301B08F910F900FBE0F901F9018951F920F9262
S11301C00FB60F92112410921F0110921E010F906E
S11301D00FBE0F901F9018951F920F920FB60F929B
S11301E011242F938F939F93AF93BF938091160104
S11301F090911701A0911801B09119010196A11DC8
S1130200B11D8093160190931701A0931801B09328
S11302101901883E9340A105B105D8F080911A01D7
S113022090911B01A0911C01B0911D010196A11D8B
S1130230B11D80931A0190931B01A0931C01B093EC
S11302401D011092160110921701109218011092BC
S11302501901BF91AF919F918F912F910F900FBE74
S11302600F901F901895909305018093040170934B
S11302700301609302010895E0910201F0910301EA
S113028020812F602083E0910201F091030123E09B
S113029030E0281B390B81E090E002C0880F991FE1
S11302A02A95E2F78095908189238083E091040167
S11302B0F091050170E07183608308950F931F939B
S11302C0CF93DF938C01C0E0D0E00DC0F801EC0FB8
S11302D0FD1F6081CE01D0DF8FE19EE40197F1F72D
S11302E000C0000021968091000190910101C8177F
S11302F0D90764F3DF91CF911F910F910895EF9285
S1130300FF920F931F93CF93DF938B019C012227BE
S113031033276F707727D901C801689413F8B6950D
S1130320A795979587951694D1F7EC01CF70DD27A3
S1130330BB27A32F922F812F7C014FE0E422FF24BF
S1130340D901C801072E7CE0B695A79597958795A6
S11303507A95D1F7702D6A5F7E4FFB01608140E290
S113036051E0FA016083CA5FDE4F68816183F7015F
S1130370EA5FFE4F6081FA016283FC01EA5FFE4F8F
S11303808081FA0183830115F0E11F0721053105FE
S113039070F4013041E014072105310558F40131AE
S11303A011052105310548F082E090E008C084E0A1
S11303B090E005C083E090E002C081E090E090937B
S11303C001018093000180E291E078DF80E291E016
S11303D0DF91CF911F910F91FF90EF900895F894C2
S10503E0FFCF49
S11303E20400350032003F065B4F666D7D277F6750
S10903F2777C395E79718D
S9030000FC
