:1000000045C0000060C000005EC000005CC0000091
:100010005AC0000037C1000056C100007BC100007B
:1000200052C0000050C000004EC000004CC0000094
:100030004AC0000048C0000046C0000044C00000A4
:1000400042C0000040C000003EC000003CC00000B4
:100050003AC0000038C0000036C0000034C00000C4
:1000600032C0000030C000002EC000002CC00000D4
:100070002AC0000028C0000026C0000024C00000E4
:1000800022C0000020C000001EC0000011241FBEBE
:10009000CFEFD0E1DEBFCDBF11E0A0E0B1E0E4E3FF
:1000A000F3E000E00BBF02C007900D92A231B10750
:1000B000D9F721E0A2E1B1E001C01D92A931B20758
:1000C000E1F7A7D035C19CCF25B32F6025BB25B361
:1000D00043E050E0481B590B81E090E002C0880FDC
:1000E000991F4A95E2F78095822385BB62BB0895EC
:1000F0000F931F93CF93DF938C01C0E0D0E00DC02E
:10010000F801EC0FFD1F6081CE01DEDF8FE19EE480
:100110000197F1F700C000002196809100019091B5
:100120000101C817D90764F3DF91CF911F910F9197
:100130000895EF92FF920F931F93CF93DF938B015C
:100140009C01222733276F707727D901C801689453
:1001500013F8B695A795979587951694D1F7EC0166
:10016000CF70DD27BB27A32F922F812F7C014FE07B
:10017000E422FF24D901C801072E7CE0B695A7959B
:10018000979587957A95D1F7702D6E5F7E4FFB011D
:10019000608144E151E0FA016083CE5FDE4F688107
:1001A0006183F701EE5FFE4F6081FA016283FC011B
:1001B000EE5FFE4F8081FA0183830115F0E11F0796
:1001C0002105310570F4013041E0140721053105A6
:1001D00058F4013111052105310548F082E090E025
:1001E00008C084E090E005C083E090E002C081E0B8
:1001F00090E0909301018093000184E191E078DF29
:1002000084E191E0DF91CF911F910F91FF90EF90EA
:1002100008958FEF81BB8FE084BB80E789BF8AE2BE
:100220008ABF8FB780688FBF7894809112019091B8
:10023000130160E070E0CB017CDF85EA9EE001976E
:10024000F1F700C0000060E070E0CB0172DF85EAEA
:100250009EE00197F1F700C0000060E070E0CB0184
:1002600068DF85EA9EE00197F1F700C0000060E0DA
:1002700070E0CB015EDF81EB9CE00197F1F700C0FD
:100280000000D3CF1F920F920FB60F9211248F93BD
:100290009F93809112019091130101969093130105
:1002A000809312018091120190911301039724F021
:1002B00010921301109212019F918F910F900FBE17
:1002C0000F901F9018951F920F920FB60F92112446
:1002D0008F939F938091120190911301892B39F490
:1002E00081E090E090931301809312010CC0809103
:1002F000120190911301019731F482E090E0909304
:100300001301809312019F918F910F900FBE0F9058
:100310001F9018951F920F920FB60F9211241092F2
:100320001301109212010F900FBE0F901F9018959D
:04033000F894FFCF6F
:1003340004003F065B4F666D7D277F67777C395EDF
:020344007971CD
:00000001FF
