:1000000045C0000060C000005EC000005CC0000091
:100010005AC0000058C0000056C0000054C0000084
:1000200052C0000050C000004EC000004CC0000094
:100030004AC0000048C0000046C0000044C00000A4
:1000400042C0000040C000003EC000003CC00000B4
:100050003AC0000038C0000036C0000034C00000C4
:1000600032C0000030C000002EC000002CC00000D4
:100070002AC0000028C0000026C0000024C00000E4
:1000800022C0000020C000001EC0000011241FBEBE
:10009000CFEFD0E1DEBFCDBF11E0A0E0B1E0E2EEF6
:1000A000F1E000E00BBF02C007900D92A031B10754
:1000B000D9F721E0A0E1B1E001C01D92A531B2075E
:1000C000E1F772D08CC09CCF25B32F6025BB25B340
:1000D00043E050E0481B590B81E090E002C0880FDC
:1000E000991F4A95E2F78095822385BB62BB8FE317
:1000F0009CE90197F1F700C0000008950F931F934A
:10010000CF93DF938C01C0E0D0E007C0F801EC0F83
:10011000FD1F6081CE01D8DF2196C430D105B4F334
:10012000DF91CF911F910F9108950F931F93CF935C
:10013000DF93EB01CF70DD278B019C01689413F8EE
:1001400036952795179507951694D1F7D801AF7076
:10015000BB27072F182F292F3327F801EF70FF2710
:10016000AB01BC01032E3CE076956795579547950A
:100170003A95D1F7302DC050DF4F2881C0E1D1E052
:100180002883A050BF4F2C912983E050FF4F20813E
:100190002A83FA01E050FF4F80818B83CE01DF91EB
:1001A000CF911F910F91089587E087BB8FEF81BB9F
:1001B0008FE084BB60E070E0CB016B017C012FEF2E
:1001C000C21AD20AE20AF20AB0DF98DF8FE39CE992
:1001D0000197F1F700C00000C701B601EECFF89417
:0201E000FFCF4F
:1001E2003F065B4F666D7D277F67777C585E79712E
:00000001FF
